{
  "contractName": "AssetToken",
  "abi": [
    {
      "inputs": [
        {
          "internalType": "string",
          "name": "_name",
          "type": "string"
        },
        {
          "internalType": "string",
          "name": "_tokensymbol",
          "type": "string"
        }
      ],
      "stateMutability": "nonpayable",
      "type": "constructor"
    },
    {
      "anonymous": false,
      "inputs": [
        {
          "indexed": true,
          "internalType": "address",
          "name": "_owner",
          "type": "address"
        },
        {
          "indexed": true,
          "internalType": "address",
          "name": "_approved",
          "type": "address"
        },
        {
          "indexed": true,
          "internalType": "uint256",
          "name": "_tokenId",
          "type": "uint256"
        }
      ],
      "name": "Approval",
      "type": "event"
    },
    {
      "anonymous": false,
      "inputs": [
        {
          "indexed": true,
          "internalType": "address",
          "name": "_owner",
          "type": "address"
        },
        {
          "indexed": true,
          "internalType": "address",
          "name": "_operator",
          "type": "address"
        },
        {
          "indexed": false,
          "internalType": "bool",
          "name": "_approved",
          "type": "bool"
        }
      ],
      "name": "ApprovalForAll",
      "type": "event"
    },
    {
      "anonymous": false,
      "inputs": [
        {
          "indexed": true,
          "internalType": "address",
          "name": "_from",
          "type": "address"
        },
        {
          "indexed": true,
          "internalType": "address",
          "name": "_to",
          "type": "address"
        },
        {
          "indexed": true,
          "internalType": "uint256",
          "name": "_tokenId",
          "type": "uint256"
        }
      ],
      "name": "Transfer",
      "type": "event"
    },
    {
      "inputs": [],
      "name": "name",
      "outputs": [
        {
          "internalType": "string",
          "name": "",
          "type": "string"
        }
      ],
      "stateMutability": "view",
      "type": "function",
      "constant": true
    },
    {
      "inputs": [],
      "name": "tokenSymbol",
      "outputs": [
        {
          "internalType": "string",
          "name": "",
          "type": "string"
        }
      ],
      "stateMutability": "view",
      "type": "function",
      "constant": true
    },
    {
      "inputs": [],
      "name": "totalSupply",
      "outputs": [
        {
          "internalType": "uint256",
          "name": "",
          "type": "uint256"
        }
      ],
      "stateMutability": "view",
      "type": "function",
      "constant": true
    },
    {
      "inputs": [
        {
          "internalType": "address",
          "name": "to",
          "type": "address"
        },
        {
          "internalType": "uint256",
          "name": "tokenId",
          "type": "uint256"
        }
      ],
      "name": "mint",
      "outputs": [],
      "stateMutability": "nonpayable",
      "type": "function"
    },
    {
      "inputs": [
        {
          "internalType": "uint256",
          "name": "tokenId",
          "type": "uint256"
        }
      ],
      "name": "burn",
      "outputs": [],
      "stateMutability": "nonpayable",
      "type": "function"
    },
    {
      "inputs": [
        {
          "internalType": "address",
          "name": "_owner",
          "type": "address"
        }
      ],
      "name": "balanceOf",
      "outputs": [
        {
          "internalType": "uint256",
          "name": "",
          "type": "uint256"
        }
      ],
      "stateMutability": "view",
      "type": "function",
      "constant": true
    },
    {
      "inputs": [
        {
          "internalType": "uint256",
          "name": "_tokenId",
          "type": "uint256"
        }
      ],
      "name": "ownerOf",
      "outputs": [
        {
          "internalType": "address",
          "name": "",
          "type": "address"
        }
      ],
      "stateMutability": "view",
      "type": "function",
      "constant": true
    },
    {
      "inputs": [
        {
          "internalType": "uint256",
          "name": "_tokenId",
          "type": "uint256"
        }
      ],
      "name": "_exists",
      "outputs": [
        {
          "internalType": "bool",
          "name": "",
          "type": "bool"
        }
      ],
      "stateMutability": "view",
      "type": "function",
      "constant": true
    },
    {
      "inputs": [
        {
          "internalType": "address",
          "name": "_owner",
          "type": "address"
        },
        {
          "internalType": "address",
          "name": "_operator",
          "type": "address"
        }
      ],
      "name": "isApprovedForAll",
      "outputs": [
        {
          "internalType": "bool",
          "name": "",
          "type": "bool"
        }
      ],
      "stateMutability": "view",
      "type": "function",
      "constant": true
    },
    {
      "inputs": [
        {
          "internalType": "address",
          "name": "_from",
          "type": "address"
        },
        {
          "internalType": "address",
          "name": "_to",
          "type": "address"
        },
        {
          "internalType": "uint256",
          "name": "_tokenId",
          "type": "uint256"
        }
      ],
      "name": "safeTransferFrom",
      "outputs": [],
      "stateMutability": "payable",
      "type": "function",
      "payable": true
    },
    {
      "inputs": [
        {
          "internalType": "address",
          "name": "_from",
          "type": "address"
        },
        {
          "internalType": "address",
          "name": "_to",
          "type": "address"
        },
        {
          "internalType": "uint256",
          "name": "_tokenId",
          "type": "uint256"
        },
        {
          "internalType": "bytes",
          "name": "data",
          "type": "bytes"
        }
      ],
      "name": "safeTransferFrom",
      "outputs": [],
      "stateMutability": "payable",
      "type": "function",
      "payable": true
    },
    {
      "inputs": [
        {
          "internalType": "uint256",
          "name": "_tokenId",
          "type": "uint256"
        }
      ],
      "name": "getApproved",
      "outputs": [
        {
          "internalType": "address",
          "name": "",
          "type": "address"
        }
      ],
      "stateMutability": "view",
      "type": "function",
      "constant": true
    },
    {
      "inputs": [
        {
          "internalType": "address",
          "name": "_approved",
          "type": "address"
        },
        {
          "internalType": "uint256",
          "name": "_tokenId",
          "type": "uint256"
        }
      ],
      "name": "approve",
      "outputs": [],
      "stateMutability": "payable",
      "type": "function",
      "payable": true
    },
    {
      "inputs": [
        {
          "internalType": "address",
          "name": "_operator",
          "type": "address"
        },
        {
          "internalType": "bool",
          "name": "_approved",
          "type": "bool"
        }
      ],
      "name": "setApprovalForAll",
      "outputs": [],
      "stateMutability": "nonpayable",
      "type": "function"
    },
    {
      "inputs": [
        {
          "internalType": "address",
          "name": "_from",
          "type": "address"
        },
        {
          "internalType": "address",
          "name": "_to",
          "type": "address"
        },
        {
          "internalType": "uint256",
          "name": "_tokenId",
          "type": "uint256"
        }
      ],
      "name": "transferFrom",
      "outputs": [],
      "stateMutability": "payable",
      "type": "function",
      "payable": true
    }
  ],
  "bytecode": "0x60806040526040518060400160405280600b81526020017f415353455420544f4b454e000000000000000000000000000000000000000000815250600090816200004a91906200036b565b506040518060400160405280600381526020017f4153540000000000000000000000000000000000000000000000000000000000815250600190816200009191906200036b565b503480156200009f57600080fd5b50604051620024e5380380620024e58339818101604052810190620000c59190620005b6565b8160009081620000d691906200036b565b508060019081620000e891906200036b565b5050506200063b565b600081519050919050565b7f4e487b7100000000000000000000000000000000000000000000000000000000600052604160045260246000fd5b7f4e487b7100000000000000000000000000000000000000000000000000000000600052602260045260246000fd5b600060028204905060018216806200017357607f821691505b6020821081036200018957620001886200012b565b5b50919050565b60008190508160005260206000209050919050565b60006020601f8301049050919050565b600082821b905092915050565b600060088302620001f37fffffffffffffffffffffffffffffffffffffffffffffffffffffffffffffffff82620001b4565b620001ff8683620001b4565b95508019841693508086168417925050509392505050565b6000819050919050565b6000819050919050565b60006200024c62000246620002408462000217565b62000221565b62000217565b9050919050565b6000819050919050565b62000268836200022b565b62000280620002778262000253565b848454620001c1565b825550505050565b600090565b6200029762000288565b620002a48184846200025d565b505050565b5b81811015620002cc57620002c06000826200028d565b600181019050620002aa565b5050565b601f8211156200031b57620002e5816200018f565b620002f084620001a4565b8101602085101562000300578190505b620003186200030f85620001a4565b830182620002a9565b50505b505050565b600082821c905092915050565b6000620003406000198460080262000320565b1980831691505092915050565b60006200035b83836200032d565b9150826002028217905092915050565b6200037682620000f1565b67ffffffffffffffff811115620003925762000391620000fc565b5b6200039e82546200015a565b620003ab828285620002d0565b600060209050601f831160018114620003e35760008415620003ce578287015190505b620003da85826200034d565b8655506200044a565b601f198416620003f3866200018f565b60005b828110156200041d57848901518255600182019150602085019450602081019050620003f6565b868310156200043d578489015162000439601f8916826200032d565b8355505b6001600288020188555050505b505050505050565b6000604051905090565b600080fd5b600080fd5b600080fd5b600080fd5b6000601f19601f8301169050919050565b6200048c8262000470565b810181811067ffffffffffffffff82111715620004ae57620004ad620000fc565b5b80604052505050565b6000620004c362000452565b9050620004d1828262000481565b919050565b600067ffffffffffffffff821115620004f457620004f3620000fc565b5b620004ff8262000470565b9050602081019050919050565b60005b838110156200052c5780820151818401526020810190506200050f565b60008484015250505050565b60006200054f6200054984620004d6565b620004b7565b9050828152602081018484840111156200056e576200056d6200046b565b5b6200057b8482856200050c565b509392505050565b600082601f8301126200059b576200059a62000466565b5b8151620005ad84826020860162000538565b91505092915050565b60008060408385031215620005d057620005cf6200045c565b5b600083015167ffffffffffffffff811115620005f157620005f062000461565b5b620005ff8582860162000583565b925050602083015167ffffffffffffffff81111562000623576200062262000461565b5b620006318582860162000583565b9150509250929050565b611e9a806200064b6000396000f3fe6080604052600436106100e85760003560e01c806342966c681161008a578063a22cb46511610059578063a22cb465146102cb578063b88d4fde146102f4578063e985e9c514610310578063f8e76cc01461034d576100e8565b806342966c68146101fd5780636352211e1461022657806370a08231146102635780637b61c320146102a0576100e8565b806318160ddd116100c657806318160ddd1461017157806323b872dd1461019c57806340c10f19146101b857806342842e0e146101e1576100e8565b806306fdde03146100ed578063081812fc14610118578063095ea7b314610155575b600080fd5b3480156100f957600080fd5b5061010261038a565b60405161010f9190611437565b60405180910390f35b34801561012457600080fd5b5061013f600480360381019061013a91906114a3565b610418565b60405161014c9190611511565b60405180910390f35b61016f600480360381019061016a9190611558565b61049d565b005b34801561017d57600080fd5b50610186610835565b60405161019391906115a7565b60405180910390f35b6101b660048036038101906101b191906115c2565b61083b565b005b3480156101c457600080fd5b506101df60048036038101906101da9190611558565b61085b565b005b6101fb60048036038101906101f691906115c2565b610a24565b005b34801561020957600080fd5b50610224600480360381019061021f91906114a3565b610a44565b005b34801561023257600080fd5b5061024d600480360381019061024891906114a3565b610ba7565b60405161025a9190611511565b60405180910390f35b34801561026f57600080fd5b5061028a60048036038101906102859190611615565b610be4565b60405161029791906115a7565b60405180910390f35b3480156102ac57600080fd5b506102b5610c2d565b6040516102c29190611437565b60405180910390f35b3480156102d757600080fd5b506102f260048036038101906102ed919061167a565b610cbb565b005b61030e600480360381019061030991906117ef565b610e26565b005b34801561031c57600080fd5b5061033760048036038101906103329190611872565b6112a7565b60405161034491906118c1565b60405180910390f35b34801561035957600080fd5b50610374600480360381019061036f91906114a3565b61133b565b60405161038191906118c1565b60405180910390f35b600080546103979061190b565b80601f01602080910402602001604051908101604052809291908181526020018280546103c39061190b565b80156104105780601f106103e557610100808354040283529160200191610410565b820191906000526020600020905b8154815290600101906020018083116103f357829003601f168201915b505050505081565b60006104238261133b565b610462576040517f08c379a000000000000000000000000000000000000000000000000000000000815260040161045990611988565b60405180910390fd5b6005600083815260200190815260200160002060009054906101000a900473ffffffffffffffffffffffffffffffffffffffff169050919050565b6003600082815260200190815260200160002060009054906101000a900473ffffffffffffffffffffffffffffffffffffffff1673ffffffffffffffffffffffffffffffffffffffff163373ffffffffffffffffffffffffffffffffffffffff16148061054357506105426003600083815260200190815260200160002060009054906101000a900473ffffffffffffffffffffffffffffffffffffffff16336112a7565b5b610582576040517f08c379a0000000000000000000000000000000000000000000000000000000008152600401610579906119f4565b60405180910390fd5b8173ffffffffffffffffffffffffffffffffffffffff166003600083815260200190815260200160002060009054906101000a900473ffffffffffffffffffffffffffffffffffffffff1673ffffffffffffffffffffffffffffffffffffffff1603610623576040517f08c379a000000000000000000000000000000000000000000000000000000000815260040161061a90611a60565b60405180910390fd5b600073ffffffffffffffffffffffffffffffffffffffff166005600083815260200190815260200160002060009054906101000a900473ffffffffffffffffffffffffffffffffffffffff1673ffffffffffffffffffffffffffffffffffffffff160361076f57816005600083815260200190815260200160002060006101000a81548173ffffffffffffffffffffffffffffffffffffffff021916908373ffffffffffffffffffffffffffffffffffffffff160217905550808273ffffffffffffffffffffffffffffffffffffffff166003600084815260200190815260200160002060009054906101000a900473ffffffffffffffffffffffffffffffffffffffff1673ffffffffffffffffffffffffffffffffffffffff167f8c5be1e5ebec7d5bd14f71427d1e84f3dd0314c0f7b2291e5b200ac8c7c3b92560405160405180910390a4610831565b806005600083815260200190815260200160002060009054906101000a900473ffffffffffffffffffffffffffffffffffffffff1673ffffffffffffffffffffffffffffffffffffffff166003600084815260200190815260200160002060009054906101000a900473ffffffffffffffffffffffffffffffffffffffff1673ffffffffffffffffffffffffffffffffffffffff167f8c5be1e5ebec7d5bd14f71427d1e84f3dd0314c0f7b2291e5b200ac8c7c3b92560405160405180910390a45b5050565b60025481565b61085683838360405180602001604052806000815250610e26565b505050565b600073ffffffffffffffffffffffffffffffffffffffff168273ffffffffffffffffffffffffffffffffffffffff16036108ca576040517f08c379a00000000000000000000000000000000000000000000000000000000081526004016108c190611acc565b60405180910390fd5b6108d38161133b565b15610913576040517f08c379a000000000000000000000000000000000000000000000000000000000815260040161090a90611b38565b60405180910390fd5b6001600460008473ffffffffffffffffffffffffffffffffffffffff1673ffffffffffffffffffffffffffffffffffffffff168152602001908152602001600020600082825401925050819055506001600260008282540192505081905550816003600083815260200190815260200160002060006101000a81548173ffffffffffffffffffffffffffffffffffffffff021916908373ffffffffffffffffffffffffffffffffffffffff160217905550808273ffffffffffffffffffffffffffffffffffffffff16600073ffffffffffffffffffffffffffffffffffffffff167fddf252ad1be2c89b69c2b068fc378daa952ba7f163c4a11628f55a4df523b3ef60405160405180910390a45050565b610a3f83838360405180602001604052806000815250610e26565b505050565b60006003600083815260200190815260200160002060009054906101000a900473ffffffffffffffffffffffffffffffffffffffff1690506005600083815260200190815260200160002060006101000a81549073ffffffffffffffffffffffffffffffffffffffff02191690556001600460008373ffffffffffffffffffffffffffffffffffffffff1673ffffffffffffffffffffffffffffffffffffffff1681526020019081526020016000206000828254039250508190555060016002600082825403925050819055506003600083815260200190815260200160002060006101000a81549073ffffffffffffffffffffffffffffffffffffffff021916905581600073ffffffffffffffffffffffffffffffffffffffff168273ffffffffffffffffffffffffffffffffffffffff167fddf252ad1be2c89b69c2b068fc378daa952ba7f163c4a11628f55a4df523b3ef60405160405180910390a45050565b60006003600083815260200190815260200160002060009054906101000a900473ffffffffffffffffffffffffffffffffffffffff169050919050565b6000600460008373ffffffffffffffffffffffffffffffffffffffff1673ffffffffffffffffffffffffffffffffffffffff168152602001908152602001600020549050919050565b60018054610c3a9061190b565b80601f0160208091040260200160405190810160405280929190818152602001828054610c669061190b565b8015610cb35780601f10610c8857610100808354040283529160200191610cb3565b820191906000526020600020905b815481529060010190602001808311610c9657829003601f168201915b505050505081565b8173ffffffffffffffffffffffffffffffffffffffff163373ffffffffffffffffffffffffffffffffffffffff1603610d29576040517f08c379a0000000000000000000000000000000000000000000000000000000008152600401610d2090611ba4565b60405180910390fd5b80600660003373ffffffffffffffffffffffffffffffffffffffff1673ffffffffffffffffffffffffffffffffffffffff16815260200190815260200160002060008473ffffffffffffffffffffffffffffffffffffffff1673ffffffffffffffffffffffffffffffffffffffff16815260200190815260200160002060006101000a81548160ff0219169083151502179055508173ffffffffffffffffffffffffffffffffffffffff163373ffffffffffffffffffffffffffffffffffffffff167f17307eab39ab6107e8899845ad3d59bd9653f200f220920489ca2b5937696c3183604051610e1a91906118c1565b60405180910390a35050565b6003600083815260200190815260200160002060009054906101000a900473ffffffffffffffffffffffffffffffffffffffff1673ffffffffffffffffffffffffffffffffffffffff163373ffffffffffffffffffffffffffffffffffffffff161480610ef157503373ffffffffffffffffffffffffffffffffffffffff166005600084815260200190815260200160002060009054906101000a900473ffffffffffffffffffffffffffffffffffffffff1673ffffffffffffffffffffffffffffffffffffffff16145b80610f355750610f346003600084815260200190815260200160002060009054906101000a900473ffffffffffffffffffffffffffffffffffffffff16336112a7565b5b610f74576040517f08c379a0000000000000000000000000000000000000000000000000000000008152600401610f6b906119f4565b60405180910390fd5b8373ffffffffffffffffffffffffffffffffffffffff166003600084815260200190815260200160002060009054906101000a900473ffffffffffffffffffffffffffffffffffffffff1673ffffffffffffffffffffffffffffffffffffffff1614611015576040517f08c379a000000000000000000000000000000000000000000000000000000000815260040161100c90611c36565b60405180910390fd5b60405160200161102490611c87565b604051602081830303815290604052805190602001208160405160200161104b9190611ce3565b60405160208183030381529060405280519060200120146110a1576040517f08c379a000000000000000000000000000000000000000000000000000000000815260040161109890611d6c565b60405180910390fd5b8273ffffffffffffffffffffffffffffffffffffffff16600073ffffffffffffffffffffffffffffffffffffffff1603611110576040517f08c379a000000000000000000000000000000000000000000000000000000000815260040161110790611dd8565b60405180910390fd5b6111198261133b565b611158576040517f08c379a000000000000000000000000000000000000000000000000000000000815260040161114f90611e44565b60405180910390fd5b6001600460008673ffffffffffffffffffffffffffffffffffffffff1673ffffffffffffffffffffffffffffffffffffffff168152602001908152602001600020600082825403925050819055506001600460008573ffffffffffffffffffffffffffffffffffffffff1673ffffffffffffffffffffffffffffffffffffffff16815260200190815260200160002060008282540192505081905550826003600084815260200190815260200160002060006101000a81548173ffffffffffffffffffffffffffffffffffffffff021916908373ffffffffffffffffffffffffffffffffffffffff160217905550818373ffffffffffffffffffffffffffffffffffffffff168573ffffffffffffffffffffffffffffffffffffffff167fddf252ad1be2c89b69c2b068fc378daa952ba7f163c4a11628f55a4df523b3ef60405160405180910390a450505050565b6000600660008473ffffffffffffffffffffffffffffffffffffffff1673ffffffffffffffffffffffffffffffffffffffff16815260200190815260200160002060008373ffffffffffffffffffffffffffffffffffffffff1673ffffffffffffffffffffffffffffffffffffffff16815260200190815260200160002060009054906101000a900460ff16905092915050565b60008073ffffffffffffffffffffffffffffffffffffffff166003600084815260200190815260200160002060009054906101000a900473ffffffffffffffffffffffffffffffffffffffff1673ffffffffffffffffffffffffffffffffffffffff1614159050919050565b600081519050919050565b600082825260208201905092915050565b60005b838110156113e15780820151818401526020810190506113c6565b60008484015250505050565b6000601f19601f8301169050919050565b6000611409826113a7565b61141381856113b2565b93506114238185602086016113c3565b61142c816113ed565b840191505092915050565b6000602082019050818103600083015261145181846113fe565b905092915050565b6000604051905090565b600080fd5b600080fd5b6000819050919050565b6114808161146d565b811461148b57600080fd5b50565b60008135905061149d81611477565b92915050565b6000602082840312156114b9576114b8611463565b5b60006114c78482850161148e565b91505092915050565b600073ffffffffffffffffffffffffffffffffffffffff82169050919050565b60006114fb826114d0565b9050919050565b61150b816114f0565b82525050565b60006020820190506115266000830184611502565b92915050565b611535816114f0565b811461154057600080fd5b50565b6000813590506115528161152c565b92915050565b6000806040838503121561156f5761156e611463565b5b600061157d85828601611543565b925050602061158e8582860161148e565b9150509250929050565b6115a18161146d565b82525050565b60006020820190506115bc6000830184611598565b92915050565b6000806000606084860312156115db576115da611463565b5b60006115e986828701611543565b93505060206115fa86828701611543565b925050604061160b8682870161148e565b9150509250925092565b60006020828403121561162b5761162a611463565b5b600061163984828501611543565b91505092915050565b60008115159050919050565b61165781611642565b811461166257600080fd5b50565b6000813590506116748161164e565b92915050565b6000806040838503121561169157611690611463565b5b600061169f85828601611543565b92505060206116b085828601611665565b9150509250929050565b600080fd5b600080fd5b7f4e487b7100000000000000000000000000000000000000000000000000000000600052604160045260246000fd5b6116fc826113ed565b810181811067ffffffffffffffff8211171561171b5761171a6116c4565b5b80604052505050565b600061172e611459565b905061173a82826116f3565b919050565b600067ffffffffffffffff82111561175a576117596116c4565b5b611763826113ed565b9050602081019050919050565b82818337600083830152505050565b600061179261178d8461173f565b611724565b9050828152602081018484840111156117ae576117ad6116bf565b5b6117b9848285611770565b509392505050565b600082601f8301126117d6576117d56116ba565b5b81356117e684826020860161177f565b91505092915050565b6000806000806080858703121561180957611808611463565b5b600061181787828801611543565b945050602061182887828801611543565b93505060406118398782880161148e565b925050606085013567ffffffffffffffff81111561185a57611859611468565b5b611866878288016117c1565b91505092959194509250565b6000806040838503121561188957611888611463565b5b600061189785828601611543565b92505060206118a885828601611543565b9150509250929050565b6118bb81611642565b82525050565b60006020820190506118d660008301846118b2565b92915050565b7f4e487b7100000000000000000000000000000000000000000000000000000000600052602260045260246000fd5b6000600282049050600182168061192357607f821691505b602082108103611936576119356118dc565b5b50919050565b7f546f6b656e20697320696e76616c696400000000000000000000000000000000600082015250565b60006119726010836113b2565b915061197d8261193c565b602082019050919050565b600060208201905081810360008301526119a181611965565b9050919050565b7f53656e64657220646f6573206e6f74206861766520617070726f76616c000000600082015250565b60006119de601d836113b2565b91506119e9826119a8565b602082019050919050565b60006020820190508181036000830152611a0d816119d1565b9050919050565b7f417070726f76616c20746f2063757272656e74206f776e657200000000000000600082015250565b6000611a4a6019836113b2565b9150611a5582611a14565b602082019050919050565b60006020820190508181036000830152611a7981611a3d565b9050919050565b7f4552433732313a206d696e7420746f20746865207a65726f2061646472657373600082015250565b6000611ab66020836113b2565b9150611ac182611a80565b602082019050919050565b60006020820190508181036000830152611ae581611aa9565b9050919050565b7f4552433732313a20746f6b656e20616c7265616479206d696e74656400000000600082015250565b6000611b22601c836113b2565b9150611b2d82611aec565b602082019050919050565b60006020820190508181036000830152611b5181611b15565b9050919050565b7f4552433732313a20617070726f766520746f2063616c6c657200000000000000600082015250565b6000611b8e6019836113b2565b9150611b9982611b58565b602082019050919050565b60006020820190508181036000830152611bbd81611b81565b9050919050565b7f53656e646572206973206e6f74206f776e6572206f6620706172746963756c6160008201527f7220746f6b656e00000000000000000000000000000000000000000000000000602082015250565b6000611c206027836113b2565b9150611c2b82611bc4565b604082019050919050565b60006020820190508181036000830152611c4f81611c13565b9050919050565b600081905092915050565b50565b6000611c71600083611c56565b9150611c7c82611c61565b600082019050919050565b6000611c9282611c64565b9150819050919050565b600081519050919050565b600081905092915050565b6000611cbd82611c9c565b611cc78185611ca7565b9350611cd78185602086016113c3565b80840191505092915050565b6000611cef8284611cb2565b915081905092915050565b7f53686f756c6420686176652063616c6c656420746865206f746865722073616660008201527f655472616e736665724d6574686f640000000000000000000000000000000000602082015250565b6000611d56602f836113b2565b9150611d6182611cfa565b604082019050919050565b60006020820190508181036000830152611d8581611d49565b9050919050565b7f5a65726f2044657374696e6174696f6e20416464726573730000000000000000600082015250565b6000611dc26018836113b2565b9150611dcd82611d8c565b602082019050919050565b60006020820190508181036000830152611df181611db5565b9050919050565b7f496e76616c696420546f6b656e20496400000000000000000000000000000000600082015250565b6000611e2e6010836113b2565b9150611e3982611df8565b602082019050919050565b60006020820190508181036000830152611e5d81611e21565b905091905056fea2646970667358221220c29cee4bdc6f8f97802c76f6b805cef4096573e44591c670e5c719112b7d08ca64736f6c63430008110033",
  "immutableReferences": {},
  "source": "// https://eips.ethereum.org/EIPS/eip-721, http://erc721.org/\r\n// SPDX-License-Identifier: MIT\r\npragma solidity ^0.8.13;\r\nimport \"./ERC721.sol\";\r\n\r\ncontract AssetToken is ERC721 {\r\n    string public name = \"ASSET TOKEN\";\r\n    string public tokenSymbol = \"AST\";\r\n    // Mapping from token ID to owner address\r\n    uint256 public totalSupply;\r\n    mapping(uint256 => address) private _owners;\r\n\r\n    // Mapping owner address to token count\r\n    mapping(address => uint256) private _balances;\r\n\r\n    // Mapping from token ID to approved address\r\n    mapping(uint256 => address) private _tokenApprovals;\r\n\r\n    // Mapping from owner to operator approvals\r\n    mapping(address => mapping(address => bool)) private _operatorApprovals;\r\n\r\n    constructor(string memory _name, string memory _tokensymbol) {\r\n        name = _name;\r\n        tokenSymbol = _tokensymbol;\r\n    }\r\n    function mint(address to, uint256 tokenId) public virtual {\r\n        require(to != address(0), \"ERC721: mint to the zero address\");\r\n        require(!_exists(tokenId), \"ERC721: token already minted\");\r\n\r\n        unchecked {\r\n            // Will not overflow unless all 2**256 token ids are minted to the same owner.\r\n            // Given that tokens are minted one by one, it is impossible in practice that\r\n            // this ever happens. Might change if we allow batch minting.\r\n            // The ERC fails to describe this case.\r\n            _balances[to] += 1;\r\n            totalSupply+=1;\r\n        }\r\n\r\n        _owners[tokenId] = to;\r\n\r\n        emit Transfer(address(0), to, tokenId);\r\n\r\n    }\r\n     function burn(uint256 tokenId) public virtual {\r\n        address owner = _owners[tokenId];\r\n\r\n        // Clear approvals\r\n        delete _tokenApprovals[tokenId];\r\n\r\n        unchecked {\r\n            _balances[owner] -= 1;\r\n            totalSupply -=1;\r\n        }\r\n        delete _owners[tokenId];\r\n        emit Transfer(owner, address(0), tokenId);\r\n    }\r\n\r\n    function balanceOf(address _owner) external override view returns (uint256) {\r\n        return _balances[_owner];\r\n    }\r\n\r\n    function ownerOf(uint256 _tokenId) external override view returns (address) {\r\n        return _owners[_tokenId];\r\n    }\r\n\r\n    function safeTransferFrom(\r\n        address _from,\r\n        address _to,\r\n        uint256 _tokenId,\r\n        bytes memory data\r\n    ) public override payable {\r\n        require(\r\n            msg.sender == _owners[_tokenId] ||\r\n                _tokenApprovals[_tokenId] == msg.sender || \r\n                isApprovedForAll(_owners[_tokenId], msg.sender),\r\n            \"Sender does not have approval\"\r\n        );\r\n        require(\r\n            _owners[_tokenId] == _from,\r\n            \"Sender is not owner of particular token\"\r\n        );\r\n        require(keccak256(abi.encodePacked((data))) == keccak256(abi.encodePacked((\"\"))), \"Should have called the other safeTransferMethod\");\r\n        require(address(0) != _to, \"Zero Destination Address\");\r\n        require( _exists(_tokenId), \"Invalid Token Id\");\r\n        unchecked {\r\n            _balances[_from] -= 1;\r\n            _balances[_to] += 1;\r\n        }\r\n\r\n        _owners[_tokenId] = _to;\r\n        emit Transfer(_from, _to, _tokenId);\r\n    }\r\n    function _exists(uint256 _tokenId) public view returns(bool){\r\n        return _owners[_tokenId] != address(0);\r\n    }\r\n    function isApprovedForAll(address _owner, address _operator) public override view returns (bool){\r\n        return _operatorApprovals[_owner][_operator];\r\n    }\r\n    function safeTransferFrom(\r\n        address _from,\r\n        address _to,\r\n        uint256 _tokenId\r\n    ) external override payable{\r\n        safeTransferFrom(_from, _to, _tokenId, \"\");\r\n    }\r\n    function getApproved(uint256 _tokenId) external override view returns (address){\r\n        require(_exists(_tokenId), \"Token is invalid\");\r\n        return _tokenApprovals[_tokenId];\r\n    }\r\n    function approve(address _approved, uint256 _tokenId) external override payable{\r\n        require(\r\n            msg.sender == _owners[_tokenId] || \r\n                isApprovedForAll(_owners[_tokenId], msg.sender),\r\n            \"Sender does not have approval\"\r\n        );\r\n        require(_owners[_tokenId] != _approved, \"Approval to current owner\");\r\n        if(_tokenApprovals[_tokenId] == address(0)){\r\n            _tokenApprovals[_tokenId] = _approved;\r\n            emit Approval(_owners[_tokenId], _approved, _tokenId);\r\n        }\r\n        else{\r\n            emit Approval(_owners[_tokenId], _tokenApprovals[_tokenId], _tokenId);\r\n        }\r\n\r\n    }\r\n    function setApprovalForAll(address _operator, bool _approved) external override{\r\n        require(msg.sender != _operator, \"ERC721: approve to caller\");\r\n        _operatorApprovals[msg.sender][_operator] = _approved;\r\n        emit ApprovalForAll(msg.sender, _operator, _approved);\r\n\r\n    }\r\n    function transferFrom(\r\n        address _from,\r\n        address _to,\r\n        uint256 _tokenId\r\n    ) external override payable{\r\n        safeTransferFrom(_from, _to, _tokenId, \"\");\r\n    }\r\n\r\n}\r\n",
  "sourcePath": "C:\\PoulamiMukherjee\\Work\\BlockChain\\OnlineAuctionSystem\\truffle\\contracts\\AssetToken.sol",
  "compiler": {
    "name": "solc",
    "version": "0.8.17+commit.8df45f5f.Emscripten.clang"
  },
  "schemaVersion": "3.4.11",
  "updatedAt": "2022-12-15T05:41:49.337Z",
  "networkType": "ethereum",
  "devdoc": {
    "kind": "dev",
    "methods": {
      "approve(address,uint256)": {
        "details": "The zero address indicates there is no approved address.  Throws unless `msg.sender` is the current NFT owner, or an authorized  operator of the current owner.",
        "params": {
          "_approved": "The new approved NFT controller",
          "_tokenId": "The NFT to approve"
        }
      },
      "balanceOf(address)": {
        "details": "NFTs assigned to the zero address are considered invalid, and this  function throws for queries about the zero address.",
        "params": {
          "_owner": "An address for whom to query the balance"
        },
        "returns": {
          "_0": "The number of NFTs owned by `_owner`, possibly zero"
        }
      },
      "getApproved(uint256)": {
        "details": "Throws if `_tokenId` is not a valid NFT.",
        "params": {
          "_tokenId": "The NFT to find the approved address for"
        },
        "returns": {
          "_0": "The approved address for this NFT, or the zero address if there is none"
        }
      },
      "isApprovedForAll(address,address)": {
        "params": {
          "_operator": "The address that acts on behalf of the owner",
          "_owner": "The address that owns the NFTs"
        },
        "returns": {
          "_0": "True if `_operator` is an approved operator for `_owner`, false otherwise"
        }
      },
      "ownerOf(uint256)": {
        "details": "NFTs assigned to zero address are considered invalid, and queries  about them do throw.",
        "params": {
          "_tokenId": "The identifier for an NFT"
        },
        "returns": {
          "_0": "The address of the owner of the NFT"
        }
      },
      "safeTransferFrom(address,address,uint256)": {
        "details": "This works identically to the other function with an extra data parameter,  except this function just sets data to \"\".",
        "params": {
          "_from": "The current owner of the NFT",
          "_to": "The new owner",
          "_tokenId": "The NFT to transfer"
        }
      },
      "safeTransferFrom(address,address,uint256,bytes)": {
        "details": "Throws unless `msg.sender` is the current owner, an authorized  operator, or the approved address for this NFT. Throws if `_from` is  not the current owner. Throws if `_to` is the zero address. Throws if  `_tokenId` is not a valid NFT. When transfer is complete, this function  checks if `_to` is a smart contract (code size > 0). If so, it calls  `onERC721Received` on `_to` and throws if the return value is not  `bytes4(keccak256(\"onERC721Received(address,address,uint256,bytes)\"))`.",
        "params": {
          "_from": "The current owner of the NFT",
          "_to": "The new owner",
          "_tokenId": "The NFT to transfer",
          "data": "Additional data with no specified format, sent in call to `_to`"
        }
      },
      "setApprovalForAll(address,bool)": {
        "details": "Emits the ApprovalForAll event. The contract MUST allow  multiple operators per owner.",
        "params": {
          "_approved": "True if the operator is approved, false to revoke approval",
          "_operator": "Address to add to the set of authorized operators"
        }
      },
      "transferFrom(address,address,uint256)": {
        "details": "Throws unless `msg.sender` is the current owner, an authorized  operator, or the approved address for this NFT. Throws if `_from` is  not the current owner. Throws if `_to` is the zero address. Throws if  `_tokenId` is not a valid NFT.",
        "params": {
          "_from": "The current owner of the NFT",
          "_to": "The new owner",
          "_tokenId": "The NFT to transfer"
        }
      }
    },
    "version": 1
  },
  "userdoc": {
    "kind": "user",
    "methods": {
      "approve(address,uint256)": {
        "notice": "Change or reaffirm the approved address for an NFT"
      },
      "balanceOf(address)": {
        "notice": "Count all NFTs assigned to an owner"
      },
      "getApproved(uint256)": {
        "notice": "Get the approved address for a single NFT"
      },
      "isApprovedForAll(address,address)": {
        "notice": "Query if an address is an authorized operator for another address"
      },
      "ownerOf(uint256)": {
        "notice": "Find the owner of an NFT"
      },
      "safeTransferFrom(address,address,uint256)": {
        "notice": "Transfers the ownership of an NFT from one address to another address"
      },
      "safeTransferFrom(address,address,uint256,bytes)": {
        "notice": "Transfers the ownership of an NFT from one address to another address"
      },
      "setApprovalForAll(address,bool)": {
        "notice": "Enable or disable approval for a third party (\"operator\") to manage  all of `msg.sender`'s assets"
      },
      "transferFrom(address,address,uint256)": {
        "notice": "Transfer ownership of an NFT -- THE CALLER IS RESPONSIBLE  TO CONFIRM THAT `_to` IS CAPABLE OF RECEIVING NFTS OR ELSE  THEY MAY BE PERMANENTLY LOST"
      }
    },
    "version": 1
  }
}