{
  "contractName": "StandardToken",
  "abi": [
    {
      "inputs": [
        {
          "internalType": "string",
          "name": "_tokenName",
          "type": "string"
        },
        {
          "internalType": "uint8",
          "name": "_decimalUnits",
          "type": "uint8"
        },
        {
          "internalType": "string",
          "name": "_tokenSymbol",
          "type": "string"
        }
      ],
      "stateMutability": "nonpayable",
      "type": "constructor"
    },
    {
      "anonymous": false,
      "inputs": [
        {
          "indexed": true,
          "internalType": "address",
          "name": "_owner",
          "type": "address"
        },
        {
          "indexed": true,
          "internalType": "address",
          "name": "_spender",
          "type": "address"
        },
        {
          "indexed": false,
          "internalType": "uint256",
          "name": "_value",
          "type": "uint256"
        }
      ],
      "name": "Approval",
      "type": "event"
    },
    {
      "anonymous": false,
      "inputs": [
        {
          "indexed": true,
          "internalType": "address",
          "name": "_from",
          "type": "address"
        },
        {
          "indexed": true,
          "internalType": "address",
          "name": "_to",
          "type": "address"
        },
        {
          "indexed": false,
          "internalType": "uint256",
          "name": "_value",
          "type": "uint256"
        }
      ],
      "name": "Transfer",
      "type": "event"
    },
    {
      "inputs": [
        {
          "internalType": "address",
          "name": "",
          "type": "address"
        },
        {
          "internalType": "address",
          "name": "",
          "type": "address"
        }
      ],
      "name": "allowed",
      "outputs": [
        {
          "internalType": "uint256",
          "name": "",
          "type": "uint256"
        }
      ],
      "stateMutability": "view",
      "type": "function",
      "constant": true
    },
    {
      "inputs": [
        {
          "internalType": "address",
          "name": "",
          "type": "address"
        }
      ],
      "name": "balances",
      "outputs": [
        {
          "internalType": "uint256",
          "name": "",
          "type": "uint256"
        }
      ],
      "stateMutability": "view",
      "type": "function",
      "constant": true
    },
    {
      "inputs": [],
      "name": "decimals",
      "outputs": [
        {
          "internalType": "uint8",
          "name": "",
          "type": "uint8"
        }
      ],
      "stateMutability": "view",
      "type": "function",
      "constant": true
    },
    {
      "inputs": [],
      "name": "name",
      "outputs": [
        {
          "internalType": "string",
          "name": "",
          "type": "string"
        }
      ],
      "stateMutability": "view",
      "type": "function",
      "constant": true
    },
    {
      "inputs": [],
      "name": "symbol",
      "outputs": [
        {
          "internalType": "string",
          "name": "",
          "type": "string"
        }
      ],
      "stateMutability": "view",
      "type": "function",
      "constant": true
    },
    {
      "inputs": [],
      "name": "totalSupply",
      "outputs": [
        {
          "internalType": "uint256",
          "name": "",
          "type": "uint256"
        }
      ],
      "stateMutability": "view",
      "type": "function",
      "constant": true
    },
    {
      "inputs": [
        {
          "internalType": "uint256",
          "name": "value",
          "type": "uint256"
        }
      ],
      "name": "mint",
      "outputs": [],
      "stateMutability": "nonpayable",
      "type": "function"
    },
    {
      "inputs": [
        {
          "internalType": "address",
          "name": "_to",
          "type": "address"
        },
        {
          "internalType": "uint256",
          "name": "_value",
          "type": "uint256"
        }
      ],
      "name": "transfer",
      "outputs": [
        {
          "internalType": "bool",
          "name": "success",
          "type": "bool"
        }
      ],
      "stateMutability": "nonpayable",
      "type": "function"
    },
    {
      "inputs": [
        {
          "internalType": "address",
          "name": "_from",
          "type": "address"
        },
        {
          "internalType": "address",
          "name": "_to",
          "type": "address"
        },
        {
          "internalType": "uint256",
          "name": "_value",
          "type": "uint256"
        }
      ],
      "name": "transferFrom",
      "outputs": [
        {
          "internalType": "bool",
          "name": "success",
          "type": "bool"
        }
      ],
      "stateMutability": "nonpayable",
      "type": "function"
    },
    {
      "inputs": [
        {
          "internalType": "address",
          "name": "_owner",
          "type": "address"
        }
      ],
      "name": "balanceOf",
      "outputs": [
        {
          "internalType": "uint256",
          "name": "balance",
          "type": "uint256"
        }
      ],
      "stateMutability": "view",
      "type": "function",
      "constant": true
    },
    {
      "inputs": [
        {
          "internalType": "address",
          "name": "_spender",
          "type": "address"
        },
        {
          "internalType": "uint256",
          "name": "_value",
          "type": "uint256"
        }
      ],
      "name": "approve",
      "outputs": [
        {
          "internalType": "bool",
          "name": "success",
          "type": "bool"
        }
      ],
      "stateMutability": "nonpayable",
      "type": "function"
    },
    {
      "inputs": [
        {
          "internalType": "address",
          "name": "_owner",
          "type": "address"
        },
        {
          "internalType": "address",
          "name": "_spender",
          "type": "address"
        }
      ],
      "name": "allowance",
      "outputs": [
        {
          "internalType": "uint256",
          "name": "remaining",
          "type": "uint256"
        }
      ],
      "stateMutability": "view",
      "type": "function",
      "constant": true
    }
  ],
  "bytecode": "0x60806040523480156200001157600080fd5b506040516200165a3803806200165a833981810160405281019062000037919062000250565b826003908162000048919062000535565b5081600460006101000a81548160ff021916908360ff160217905550806005908162000075919062000535565b505050506200061c565b6000604051905090565b600080fd5b600080fd5b600080fd5b600080fd5b6000601f19601f8301169050919050565b7f4e487b7100000000000000000000000000000000000000000000000000000000600052604160045260246000fd5b620000e8826200009d565b810181811067ffffffffffffffff821117156200010a5762000109620000ae565b5b80604052505050565b60006200011f6200007f565b90506200012d8282620000dd565b919050565b600067ffffffffffffffff82111562000150576200014f620000ae565b5b6200015b826200009d565b9050602081019050919050565b60005b83811015620001885780820151818401526020810190506200016b565b60008484015250505050565b6000620001ab620001a58462000132565b62000113565b905082815260208101848484011115620001ca57620001c962000098565b5b620001d784828562000168565b509392505050565b600082601f830112620001f757620001f662000093565b5b81516200020984826020860162000194565b91505092915050565b600060ff82169050919050565b6200022a8162000212565b81146200023657600080fd5b50565b6000815190506200024a816200021f565b92915050565b6000806000606084860312156200026c576200026b62000089565b5b600084015167ffffffffffffffff8111156200028d576200028c6200008e565b5b6200029b86828701620001df565b9350506020620002ae8682870162000239565b925050604084015167ffffffffffffffff811115620002d257620002d16200008e565b5b620002e086828701620001df565b9150509250925092565b600081519050919050565b7f4e487b7100000000000000000000000000000000000000000000000000000000600052602260045260246000fd5b600060028204905060018216806200033d57607f821691505b602082108103620003535762000352620002f5565b5b50919050565b60008190508160005260206000209050919050565b60006020601f8301049050919050565b600082821b905092915050565b600060088302620003bd7fffffffffffffffffffffffffffffffffffffffffffffffffffffffffffffffff826200037e565b620003c986836200037e565b95508019841693508086168417925050509392505050565b6000819050919050565b6000819050919050565b600062000416620004106200040a84620003e1565b620003eb565b620003e1565b9050919050565b6000819050919050565b6200043283620003f5565b6200044a62000441826200041d565b8484546200038b565b825550505050565b600090565b6200046162000452565b6200046e81848462000427565b505050565b5b8181101562000496576200048a60008262000457565b60018101905062000474565b5050565b601f821115620004e557620004af8162000359565b620004ba846200036e565b81016020851015620004ca578190505b620004e2620004d9856200036e565b83018262000473565b50505b505050565b600082821c905092915050565b60006200050a60001984600802620004ea565b1980831691505092915050565b6000620005258383620004f7565b9150826002028217905092915050565b6200054082620002ea565b67ffffffffffffffff8111156200055c576200055b620000ae565b5b62000568825462000324565b620005758282856200049a565b600060209050601f831160018114620005ad576000841562000598578287015190505b620005a4858262000517565b86555062000614565b601f198416620005bd8662000359565b60005b82811015620005e757848901518255600182019150602085019450602081019050620005c0565b8683101562000607578489015162000603601f891682620004f7565b8355505b6001600288020188555050505b505050505050565b61102e806200062c6000396000f3fe608060405234801561001057600080fd5b50600436106100b45760003560e01c80635c658165116100715780635c658165146101a357806370a08231146101d357806395d89b4114610203578063a0712d6814610221578063a9059cbb1461023d578063dd62ed3e1461026d576100b4565b806306fdde03146100b9578063095ea7b3146100d757806318160ddd1461010757806323b872dd1461012557806327e235e314610155578063313ce56714610185575b600080fd5b6100c161029d565b6040516100ce9190610b5e565b60405180910390f35b6100f160048036038101906100ec9190610c19565b61032b565b6040516100fe9190610c74565b60405180910390f35b61010f61041d565b60405161011c9190610c9e565b60405180910390f35b61013f600480360381019061013a9190610cb9565b610423565b60405161014c9190610c74565b60405180910390f35b61016f600480360381019061016a9190610d0c565b610714565b60405161017c9190610c9e565b60405180910390f35b61018d61072c565b60405161019a9190610d55565b60405180910390f35b6101bd60048036038101906101b89190610d70565b61073f565b6040516101ca9190610c9e565b60405180910390f35b6101ed60048036038101906101e89190610d0c565b610764565b6040516101fa9190610c9e565b60405180910390f35b61020b6107ac565b6040516102189190610b5e565b60405180910390f35b61023b60048036038101906102369190610db0565b61083a565b005b61025760048036038101906102529190610c19565b6108ab565b6040516102649190610c74565b60405180910390f35b61028760048036038101906102829190610d70565b610a47565b6040516102949190610c9e565b60405180910390f35b600380546102aa90610e0c565b80601f01602080910402602001604051908101604052809291908181526020018280546102d690610e0c565b80156103235780601f106102f857610100808354040283529160200191610323565b820191906000526020600020905b81548152906001019060200180831161030657829003601f168201915b505050505081565b600081600160003373ffffffffffffffffffffffffffffffffffffffff1673ffffffffffffffffffffffffffffffffffffffff16815260200190815260200160002060008573ffffffffffffffffffffffffffffffffffffffff1673ffffffffffffffffffffffffffffffffffffffff168152602001908152602001600020819055508273ffffffffffffffffffffffffffffffffffffffff163373ffffffffffffffffffffffffffffffffffffffff167f8c5be1e5ebec7d5bd14f71427d1e84f3dd0314c0f7b2291e5b200ac8c7c3b9258460405161040b9190610c9e565b60405180910390a36001905092915050565b60025481565b600080600160008673ffffffffffffffffffffffffffffffffffffffff1673ffffffffffffffffffffffffffffffffffffffff16815260200190815260200160002060003373ffffffffffffffffffffffffffffffffffffffff1673ffffffffffffffffffffffffffffffffffffffff168152602001908152602001600020549050826000808773ffffffffffffffffffffffffffffffffffffffff1673ffffffffffffffffffffffffffffffffffffffff168152602001908152602001600020541015806104f25750828110155b610531576040517f08c379a000000000000000000000000000000000000000000000000000000000815260040161052890610eaf565b60405180910390fd5b826000808673ffffffffffffffffffffffffffffffffffffffff1673ffffffffffffffffffffffffffffffffffffffff168152602001908152602001600020600082825461057f9190610efe565b92505081905550826000808773ffffffffffffffffffffffffffffffffffffffff1673ffffffffffffffffffffffffffffffffffffffff16815260200190815260200160002060008282546105d49190610f32565b9250508190555060008111801561060a57507fffffffffffffffffffffffffffffffffffffffffffffffffffffffffffffffff81105b156106a35782600160008773ffffffffffffffffffffffffffffffffffffffff1673ffffffffffffffffffffffffffffffffffffffff16815260200190815260200160002060003373ffffffffffffffffffffffffffffffffffffffff1673ffffffffffffffffffffffffffffffffffffffff168152602001908152602001600020600082825461069b9190610f32565b925050819055505b8373ffffffffffffffffffffffffffffffffffffffff168573ffffffffffffffffffffffffffffffffffffffff167fddf252ad1be2c89b69c2b068fc378daa952ba7f163c4a11628f55a4df523b3ef856040516107009190610c9e565b60405180910390a360019150509392505050565b60006020528060005260406000206000915090505481565b600460009054906101000a900460ff1681565b6001602052816000526040600020602052806000526040600020600091509150505481565b60008060008373ffffffffffffffffffffffffffffffffffffffff1673ffffffffffffffffffffffffffffffffffffffff168152602001908152602001600020549050919050565b600580546107b990610e0c565b80601f01602080910402602001604051908101604052809291908181526020018280546107e590610e0c565b80156108325780601f1061080757610100808354040283529160200191610832565b820191906000526020600020905b81548152906001019060200180831161081557829003601f168201915b505050505081565b806000803373ffffffffffffffffffffffffffffffffffffffff1673ffffffffffffffffffffffffffffffffffffffff16815260200190815260200160002060008282546108889190610efe565b9250508190555080600260008282546108a19190610efe565b9250508190555050565b6000816000803373ffffffffffffffffffffffffffffffffffffffff1673ffffffffffffffffffffffffffffffffffffffff16815260200190815260200160002054101561092e576040517f08c379a000000000000000000000000000000000000000000000000000000000815260040161092590610fd8565b60405180910390fd5b816000803373ffffffffffffffffffffffffffffffffffffffff1673ffffffffffffffffffffffffffffffffffffffff168152602001908152602001600020600082825461097c9190610f32565b92505081905550816000808573ffffffffffffffffffffffffffffffffffffffff1673ffffffffffffffffffffffffffffffffffffffff16815260200190815260200160002060008282546109d19190610efe565b925050819055508273ffffffffffffffffffffffffffffffffffffffff163373ffffffffffffffffffffffffffffffffffffffff167fddf252ad1be2c89b69c2b068fc378daa952ba7f163c4a11628f55a4df523b3ef84604051610a359190610c9e565b60405180910390a36001905092915050565b6000600160008473ffffffffffffffffffffffffffffffffffffffff1673ffffffffffffffffffffffffffffffffffffffff16815260200190815260200160002060008373ffffffffffffffffffffffffffffffffffffffff1673ffffffffffffffffffffffffffffffffffffffff16815260200190815260200160002054905092915050565b600081519050919050565b600082825260208201905092915050565b60005b83811015610b08578082015181840152602081019050610aed565b60008484015250505050565b6000601f19601f8301169050919050565b6000610b3082610ace565b610b3a8185610ad9565b9350610b4a818560208601610aea565b610b5381610b14565b840191505092915050565b60006020820190508181036000830152610b788184610b25565b905092915050565b600080fd5b600073ffffffffffffffffffffffffffffffffffffffff82169050919050565b6000610bb082610b85565b9050919050565b610bc081610ba5565b8114610bcb57600080fd5b50565b600081359050610bdd81610bb7565b92915050565b6000819050919050565b610bf681610be3565b8114610c0157600080fd5b50565b600081359050610c1381610bed565b92915050565b60008060408385031215610c3057610c2f610b80565b5b6000610c3e85828601610bce565b9250506020610c4f85828601610c04565b9150509250929050565b60008115159050919050565b610c6e81610c59565b82525050565b6000602082019050610c896000830184610c65565b92915050565b610c9881610be3565b82525050565b6000602082019050610cb36000830184610c8f565b92915050565b600080600060608486031215610cd257610cd1610b80565b5b6000610ce086828701610bce565b9350506020610cf186828701610bce565b9250506040610d0286828701610c04565b9150509250925092565b600060208284031215610d2257610d21610b80565b5b6000610d3084828501610bce565b91505092915050565b600060ff82169050919050565b610d4f81610d39565b82525050565b6000602082019050610d6a6000830184610d46565b92915050565b60008060408385031215610d8757610d86610b80565b5b6000610d9585828601610bce565b9250506020610da685828601610bce565b9150509250929050565b600060208284031215610dc657610dc5610b80565b5b6000610dd484828501610c04565b91505092915050565b7f4e487b7100000000000000000000000000000000000000000000000000000000600052602260045260246000fd5b60006002820490506001821680610e2457607f821691505b602082108103610e3757610e36610ddd565b5b50919050565b7f746f6b656e2062616c616e6365206f7220616c6c6f77616e6365206973206c6f60008201527f776572207468616e20616d6f756e742072657175657374656400000000000000602082015250565b6000610e99603983610ad9565b9150610ea482610e3d565b604082019050919050565b60006020820190508181036000830152610ec881610e8c565b9050919050565b7f4e487b7100000000000000000000000000000000000000000000000000000000600052601160045260246000fd5b6000610f0982610be3565b9150610f1483610be3565b9250828201905080821115610f2c57610f2b610ecf565b5b92915050565b6000610f3d82610be3565b9150610f4883610be3565b9250828203905081811115610f6057610f5f610ecf565b5b92915050565b7f746f6b656e2062616c616e6365206973206c6f776572207468616e207468652060008201527f76616c7565207265717565737465640000000000000000000000000000000000602082015250565b6000610fc2602f83610ad9565b9150610fcd82610f66565b604082019050919050565b60006020820190508181036000830152610ff181610fb5565b905091905056fea2646970667358221220085b97210cf6c5f6bb3b1f5b256e0108f304949ea799878bd8b6331223c015bd64736f6c63430008110033",
  "immutableReferences": {},
  "source": "// https://eips.ethereum.org/EIPS/eip-20\r\n// SPDX-License-Identifier: MIT\r\npragma solidity ^0.8.13;\r\nimport \"./Token.sol\";\r\n\r\ncontract StandardToken is Token {\r\n    uint256 constant private MAX_UINT256 = 2**256 - 1;\r\n    mapping (address => uint256) public balances;\r\n    mapping (address => mapping (address => uint256)) public allowed;\r\n    uint256 public totalSupply;\r\n    /*\r\n    NOTE:\r\n    The following variables are OPTIONAL vanities. One does not have to include them.\r\n    They allow one to customise the token contract & in no way influences the core functionality.\r\n    Some wallets/interfaces might not even bother to look at this information.\r\n    */\r\n    string public name;                   //fancy name: eg Simon Bucks\r\n    uint8 public decimals;                //How many decimals to show.\r\n    string public symbol;                 //An identifier: eg SBX\r\n\r\n    constructor(string memory _tokenName, uint8 _decimalUnits, string  memory _tokenSymbol) {                        // Update total supply\r\n        name = _tokenName;                                   // Set the name for display purposes\r\n        decimals = _decimalUnits;                            // Amount of decimals for display purposes\r\n        symbol = _tokenSymbol;                               // Set the symbol for display purposes\r\n    }\r\n    function mint(uint256 value) public {\r\n        balances[msg.sender] +=value;\r\n        totalSupply+=value;\r\n    }\r\n    function transfer(address _to, uint256 _value) public override returns (bool success) {\r\n        require(balances[msg.sender] >= _value, \"token balance is lower than the value requested\");\r\n        balances[msg.sender] -= _value;\r\n        balances[_to] += _value;\r\n        emit Transfer(msg.sender, _to, _value); //solhint-disable-line indent, no-unused-vars\r\n        return true;\r\n    }\r\n\r\n    function transferFrom(address _from, address _to, uint256 _value) public override returns (bool success) {\r\n        uint256 allowances = allowed[_from][msg.sender];\r\n        require(balances[_from] >= _value || allowances >= _value, \"token balance or allowance is lower than amount requested\");\r\n        balances[_to] += _value;\r\n        balances[_from] -= _value;\r\n        if (allowances>0 && allowances < MAX_UINT256) {\r\n            allowed[_from][msg.sender] -= _value;\r\n        }\r\n        emit Transfer(_from, _to, _value); //solhint-disable-line indent, no-unused-vars\r\n        return true;\r\n    }\r\n\r\n    function balanceOf(address _owner) public override view returns (uint256 balance) {\r\n        return balances[_owner];\r\n    }\r\n\r\n    function approve(address _spender, uint256 _value) public override returns (bool success) {\r\n        allowed[msg.sender][_spender] = _value;\r\n        emit Approval(msg.sender, _spender, _value); //solhint-disable-line indent, no-unused-vars\r\n        return true;\r\n    }\r\n\r\n    function allowance(address _owner, address _spender) public override view returns (uint256 remaining) {\r\n        return allowed[_owner][_spender];\r\n    }\r\n} ",
  "sourcePath": "C:\\PoulamiMukherjee\\Work\\BlockChain\\OnlineAuctionSystem\\truffle\\contracts\\StandardToken.sol",
  "compiler": {
    "name": "solc",
    "version": "0.8.17+commit.8df45f5f.Emscripten.clang"
  },
  "schemaVersion": "3.4.11",
  "updatedAt": "2022-12-15T05:41:50.774Z",
  "networkType": "ethereum",
  "devdoc": {
    "kind": "dev",
    "methods": {
      "allowance(address,address)": {
        "params": {
          "_owner": "The address of the account owning tokens",
          "_spender": "The address of the account able to transfer the tokens"
        },
        "returns": {
          "remaining": "Amount of remaining tokens allowed to spent"
        }
      },
      "approve(address,uint256)": {
        "params": {
          "_spender": "The address of the account able to transfer the tokens",
          "_value": "The amount of wei to be approved for transfer"
        },
        "returns": {
          "success": "Whether the approval was successful or not"
        }
      },
      "balanceOf(address)": {
        "params": {
          "_owner": "The address from which the balance will be retrieved"
        },
        "returns": {
          "balance": "the balance"
        }
      },
      "transfer(address,uint256)": {
        "params": {
          "_to": "The address of the recipient",
          "_value": "The amount of token to be transferred"
        },
        "returns": {
          "success": "Whether the transfer was successful or not"
        }
      },
      "transferFrom(address,address,uint256)": {
        "params": {
          "_from": "The address of the sender",
          "_to": "The address of the recipient",
          "_value": "The amount of token to be transferred"
        },
        "returns": {
          "success": "Whether the transfer was successful or not"
        }
      }
    },
    "version": 1
  },
  "userdoc": {
    "kind": "user",
    "methods": {
      "approve(address,uint256)": {
        "notice": "`msg.sender` approves `_addr` to spend `_value` tokens"
      },
      "transfer(address,uint256)": {
        "notice": "send `_value` token to `_to` from `msg.sender`"
      },
      "transferFrom(address,address,uint256)": {
        "notice": "send `_value` token to `_to` from `_from` on the condition it is approved by `_from`"
      }
    },
    "version": 1
  }
}